{
  "abi": [
    {
      "type": "constructor",
      "inputs": [
        {
          "name": "_gameToken",
          "type": "address",
          "internalType": "address"
        }
      ],
      "stateMutability": "nonpayable"
    },
    {
      "type": "function",
      "name": "authorizedRelayers",
      "inputs": [
        {
          "name": "",
          "type": "address",
          "internalType": "address"
        }
      ],
      "outputs": [
        {
          "name": "",
          "type": "bool",
          "internalType": "bool"
        }
      ],
      "stateMutability": "view"
    },
    {
      "type": "function",
      "name": "createWallet",
      "inputs": [
        {
          "name": "_owner",
          "type": "address",
          "internalType": "address"
        }
      ],
      "outputs": [
        {
          "name": "",
          "type": "address",
          "internalType": "address"
        }
      ],
      "stateMutability": "nonpayable"
    },
    {
      "type": "function",
      "name": "depositToPool",
      "inputs": [
        {
          "name": "_player",
          "type": "address",
          "internalType": "address"
        },
        {
          "name": "_amount",
          "type": "uint256",
          "internalType": "uint256"
        }
      ],
      "outputs": [],
      "stateMutability": "nonpayable"
    },
    {
      "type": "function",
      "name": "gameToken",
      "inputs": [],
      "outputs": [
        {
          "name": "",
          "type": "address",
          "internalType": "contract IERC20"
        }
      ],
      "stateMutability": "view"
    },
    {
      "type": "function",
      "name": "getPlayerBalance",
      "inputs": [
        {
          "name": "_player",
          "type": "address",
          "internalType": "address"
        }
      ],
      "outputs": [
        {
          "name": "",
          "type": "uint256",
          "internalType": "uint256"
        }
      ],
      "stateMutability": "view"
    },
    {
      "type": "function",
      "name": "getWallet",
      "inputs": [
        {
          "name": "_owner",
          "type": "address",
          "internalType": "address"
        }
      ],
      "outputs": [
        {
          "name": "",
          "type": "address",
          "internalType": "address"
        }
      ],
      "stateMutability": "view"
    },
    {
      "type": "function",
      "name": "isPlayerWallet",
      "inputs": [
        {
          "name": "_wallet",
          "type": "address",
          "internalType": "address"
        },
        {
          "name": "_player",
          "type": "address",
          "internalType": "address"
        }
      ],
      "outputs": [
        {
          "name": "",
          "type": "bool",
          "internalType": "bool"
        }
      ],
      "stateMutability": "view"
    },
    {
      "type": "function",
      "name": "owner",
      "inputs": [],
      "outputs": [
        {
          "name": "",
          "type": "address",
          "internalType": "address"
        }
      ],
      "stateMutability": "view"
    },
    {
      "type": "function",
      "name": "playerBalances",
      "inputs": [
        {
          "name": "",
          "type": "address",
          "internalType": "address"
        }
      ],
      "outputs": [
        {
          "name": "",
          "type": "uint256",
          "internalType": "uint256"
        }
      ],
      "stateMutability": "view"
    },
    {
      "type": "function",
      "name": "renounceOwnership",
      "inputs": [],
      "outputs": [],
      "stateMutability": "nonpayable"
    },
    {
      "type": "function",
      "name": "setRelayer",
      "inputs": [
        {
          "name": "_relayer",
          "type": "address",
          "internalType": "address"
        },
        {
          "name": "_isAuthorized",
          "type": "bool",
          "internalType": "bool"
        }
      ],
      "outputs": [],
      "stateMutability": "nonpayable"
    },
    {
      "type": "function",
      "name": "totalPoolBalance",
      "inputs": [],
      "outputs": [
        {
          "name": "",
          "type": "uint256",
          "internalType": "uint256"
        }
      ],
      "stateMutability": "view"
    },
    {
      "type": "function",
      "name": "transferFromPoolToTable",
      "inputs": [
        {
          "name": "player",
          "type": "address",
          "internalType": "address"
        },
        {
          "name": "tableAddress",
          "type": "address",
          "internalType": "address"
        },
        {
          "name": "amount",
          "type": "uint256",
          "internalType": "uint256"
        }
      ],
      "outputs": [],
      "stateMutability": "nonpayable"
    },
    {
      "type": "function",
      "name": "transferOwnership",
      "inputs": [
        {
          "name": "newOwner",
          "type": "address",
          "internalType": "address"
        }
      ],
      "outputs": [],
      "stateMutability": "nonpayable"
    },
    {
      "type": "function",
      "name": "updatePlayerBalance",
      "inputs": [
        {
          "name": "_player",
          "type": "address",
          "internalType": "address"
        },
        {
          "name": "_newBalance",
          "type": "uint256",
          "internalType": "uint256"
        }
      ],
      "outputs": [],
      "stateMutability": "nonpayable"
    },
    {
      "type": "function",
      "name": "userWallets",
      "inputs": [
        {
          "name": "",
          "type": "address",
          "internalType": "address"
        }
      ],
      "outputs": [
        {
          "name": "",
          "type": "address",
          "internalType": "address"
        }
      ],
      "stateMutability": "view"
    },
    {
      "type": "function",
      "name": "walletToPlayer",
      "inputs": [
        {
          "name": "",
          "type": "address",
          "internalType": "address"
        }
      ],
      "outputs": [
        {
          "name": "",
          "type": "address",
          "internalType": "address"
        }
      ],
      "stateMutability": "view"
    },
    {
      "type": "function",
      "name": "withdrawFromPool",
      "inputs": [
        {
          "name": "_player",
          "type": "address",
          "internalType": "address"
        },
        {
          "name": "_amount",
          "type": "uint256",
          "internalType": "uint256"
        }
      ],
      "outputs": [],
      "stateMutability": "nonpayable"
    },
    {
      "type": "event",
      "name": "BalanceAllocated",
      "inputs": [
        {
          "name": "player",
          "type": "address",
          "indexed": true,
          "internalType": "address"
        },
        {
          "name": "table",
          "type": "address",
          "indexed": true,
          "internalType": "address"
        },
        {
          "name": "amount",
          "type": "uint256",
          "indexed": false,
          "internalType": "uint256"
        }
      ],
      "anonymous": false
    },
    {
      "type": "event",
      "name": "BalanceUpdated",
      "inputs": [
        {
          "name": "player",
          "type": "address",
          "indexed": true,
          "internalType": "address"
        },
        {
          "name": "newBalance",
          "type": "uint256",
          "indexed": false,
          "internalType": "uint256"
        }
      ],
      "anonymous": false
    },
    {
      "type": "event",
      "name": "FundsDeposited",
      "inputs": [
        {
          "name": "player",
          "type": "address",
          "indexed": true,
          "internalType": "address"
        },
        {
          "name": "amount",
          "type": "uint256",
          "indexed": false,
          "internalType": "uint256"
        }
      ],
      "anonymous": false
    },
    {
      "type": "event",
      "name": "FundsWithdrawn",
      "inputs": [
        {
          "name": "player",
          "type": "address",
          "indexed": true,
          "internalType": "address"
        },
        {
          "name": "amount",
          "type": "uint256",
          "indexed": false,
          "internalType": "uint256"
        }
      ],
      "anonymous": false
    },
    {
      "type": "event",
      "name": "OwnershipTransferred",
      "inputs": [
        {
          "name": "previousOwner",
          "type": "address",
          "indexed": true,
          "internalType": "address"
        },
        {
          "name": "newOwner",
          "type": "address",
          "indexed": true,
          "internalType": "address"
        }
      ],
      "anonymous": false
    },
    {
      "type": "event",
      "name": "PoolToTableTransfer",
      "inputs": [
        {
          "name": "player",
          "type": "address",
          "indexed": true,
          "internalType": "address"
        },
        {
          "name": "table",
          "type": "address",
          "indexed": true,
          "internalType": "address"
        },
        {
          "name": "amount",
          "type": "uint256",
          "indexed": false,
          "internalType": "uint256"
        }
      ],
      "anonymous": false
    },
    {
      "type": "event",
      "name": "RelayerUpdated",
      "inputs": [
        {
          "name": "relayer",
          "type": "address",
          "indexed": true,
          "internalType": "address"
        },
        {
          "name": "isAuthorized",
          "type": "bool",
          "indexed": false,
          "internalType": "bool"
        }
      ],
      "anonymous": false
    },
    {
      "type": "event",
      "name": "WalletCreated",
      "inputs": [
        {
          "name": "owner",
          "type": "address",
          "indexed": true,
          "internalType": "address"
        },
        {
          "name": "wallet",
          "type": "address",
          "indexed": true,
          "internalType": "address"
        }
      ],
      "anonymous": false
    },
    {
      "type": "error",
      "name": "OwnableInvalidOwner",
      "inputs": [
        {
          "name": "owner",
          "type": "address",
          "internalType": "address"
        }
      ]
    },
    {
      "type": "error",
      "name": "OwnableUnauthorizedAccount",
      "inputs": [
        {
          "name": "account",
          "type": "address",
          "internalType": "address"
        }
      ]
    }
  ],
  "bytecode": {
    "object": "0x6080346100c257601f61252538819003918201601f19168301916001600160401b038311848410176100c6578084926020946040528339810103126100c257516001600160a01b0390818116908190036100c25733156100aa575f5460018060a01b03199033828216175f55604051933391167f8be0079c531659141344cd1fd0a4f28419497f9722a3daafe3b4186f6b6457e05f80a3600154161760015561244a90816100db8239f35b604051631e4fbdf760e01b81525f6004820152602490fd5b5f80fd5b634e487b7160e01b5f52604160045260245ffdfe60806040818152600480361015610014575f80fd5b5f92833560e01c90816304d0a64714610a8a5750806305dbcb2f14610a3f57806329e295c514610a015780632f6d58dc146108bf5780635026d63e146108a05780635363d646146107e857806363e6ffdd146107ad578063715018a6146107535780637b38314c146101f5578063827d4fb0146107185780638da5cb5b146106f05780639733cfc41461054d578063b054a9e81461041b578063c1bf9e5814610253578063c3dfdae61461022a578063e2734c93146101f5578063ecd8dc3a1461016f5763f2fde38b146100e6575f80fd5b3461016b57602036600319011261016b576100ff610ac2565b90610108610af2565b6001600160a01b0391821692831561015557505082546001600160a01b0319811683178455167f8be0079c531659141344cd1fd0a4f28419497f9722a3daafe3b4186f6b6457e08380a380f35b51631e4fbdf760e01b8152908101849052602490fd5b8280fd5b5050346101f157806003193601126101f157610189610ac2565b602435908115158092036101ed577f4b36b2e66f38ed349bec532105790177f1283bcbc094e6cd48565195d3033c43916020916101c4610af2565b6001600160a01b031680865260068352848620805460ff191660ff84161790559351908152a280f35b8380fd5b5080fd5b503461016b57602036600319011261016b5760209282916001600160a01b0361021c610ac2565b168252845220549051908152f35b5050346101f157816003193601126101f15760015490516001600160a01b039091168152602090f35b503461016b578160031936011261016b5761026c610ac2565b602435926001600160a01b03918216923384148015610406575b61028f90610b69565b8386526020928184528583882054106103cd57838661031b92878a526002835280868b205416906102c1821515610b1d565b888b52858452868b206102d5848254610c51565b90556102e383600554610c51565b60055560015416908a875180968195829463a9059cbb60e01b84528a840160209093929193604081019460018060a01b031681520152565b03925af19081156103c35784869761037e7f8ad64a0ac7700dd8425ab0499f107cb6e2cd1581d803c5b8c1c79dcb8190b1af98947feaff4b37086828766ad3268786972c0cd24259d4c87a80f9d3963a3c3d999b0d948c91610396575b50610bf2565b8551908152a28486528252808520549051908152a280f35b6103b69150843d86116103bc575b6103ae8183610ba4565b810190610bda565b5f610378565b503d6103a4565b83513d89823e3d90fd5b5082606492519162461bcd60e51b83528201526014602482015273496e73756666696369656e742062616c616e636560601b6044820152fd5b5033865260066020528186205460ff16610286565b50913461054a57602091826003193601126101f1576001600160a01b039384610442610ac2565b16908184526002855285838520541661050f5782519061176a8083019183831067ffffffffffffffff8411176104fc575086918391610cab833984815203019084f09485156104f0577f5b03bfed1c14a02bdeceb5fa582eb1a5765fc0bc64ca0e6af4c20afc9487f08193949516928392828652600287528086206bffffffffffffffffffffffff60a01b908582825416179055848752600388528382882091825416179055519480a38152f35b505051903d90823e3d90fd5b634e487b7160e01b875260419052602486fd5b825162461bcd60e51b8152908101859052601560248201527457616c6c657420616c72656164792065786973747360581b6044820152606490fd5b80fd5b508290346101f15760603660031901126101f157610569610ac2565b90610572610adc565b604435923385526020916006835261058f60ff8888205416610c5e565b6001600160a01b039182168087528484528787205490949086116106ad578487528084528787206105c1878254610c51565b9055600154885163a9059cbb60e01b81526001600160a01b0384168382019081526020810189905290918691839187169082908c90829060400103925af19081156106a3578891610686575b501561064357507f71d81f505b15c49c00a2c22d68778d1e843c6a1684df322dcf12c64f46dd1ed093949596519586521693a380f35b875162461bcd60e51b8152908101849052601860248201527f5472616e7366657220746f207461626c65206661696c656400000000000000006044820152606490fd5b61069d9150853d87116103bc576103ae8183610ba4565b8961060d565b89513d8a823e3d90fd5b875162461bcd60e51b8152908101849052601960248201527f496e73756666696369656e7420706f6f6c2062616c616e6365000000000000006044820152606490fd5b5050346101f157816003193601126101f157905490516001600160a01b039091168152602090f35b5050346101f15760203660031901126101f1576020916001600160a01b0390829082610742610ac2565b168152600385522054169051908152f35b833461054a578060031936011261054a5761076c610af2565b80546001600160a01b03198116825581906001600160a01b03167f8be0079c531659141344cd1fd0a4f28419497f9722a3daafe3b4186f6b6457e08280a380f35b5050346101f15760203660031901126101f1576020916001600160a01b03908290826107d7610ac2565b168152600285522054169051908152f35b50903461016b578060031936011261016b5760207f8ad64a0ac7700dd8425ab0499f107cb6e2cd1581d803c5b8c1c79dcb8190b1af91610826610ac2565b90602435913387526006845261084160ff8389205416610c5e565b6001600160a01b03168087529483528086208054908390558281811115610883576108779161086f91610c51565b600554610c30565b6005555b51908152a280f35b6108909061089892610c51565b600554610c51565b60055561087b565b5050346101f157816003193601126101f1576020906005549051908152f35b503461016b578160031936011261016b576108d8610ac2565b6024359260018060a01b0380921692838652856020809460028252606481868520541691610907831515610b1d565b82331480156109f8575b80156109e4575b61092190610b69565b6001541691865194859384926323b872dd60e01b8452888401523060248401528b60448401525af19081156103c3578486976109a77f8ad64a0ac7700dd8425ab0499f107cb6e2cd1581d803c5b8c1c79dcb8190b1af98947f543ba50a5eec5e6178218e364b1d0f396157b3c8fa278522c2cb7fd99407d474948c916103965750610bf2565b838a52848252858a206109bb828254610c30565b90556109c981600554610c30565b6005558551908152a28486528252808520549051908152a280f35b50338552600684528685205460ff16610918565b50883314610911565b5050346101f15760203660031901126101f15760209160ff9082906001600160a01b03610a2c610ac2565b1681526006855220541690519015158152f35b5050346101f157806003193601126101f15790602091610a5d610ac2565b91610a66610adc565b6001600160a01b039384168252600385529082902054915190831691909216148152f35b8490843461016b57602036600319011261016b576020926001600160a01b03919082610ab4610ac2565b168152600285522054168152f35b600435906001600160a01b0382168203610ad857565b5f80fd5b602435906001600160a01b0382168203610ad857565b5f546001600160a01b03163303610b0557565b60405163118cdaa760e01b8152336004820152602490fd5b15610b2457565b60405162461bcd60e51b815260206004820152601a60248201527f4e6f2077616c6c657420666f756e6420666f7220706c617965720000000000006044820152606490fd5b15610b7057565b60405162461bcd60e51b815260206004820152600c60248201526b155b985d5d1a1bdc9a5e995960a21b6044820152606490fd5b90601f8019910116810190811067ffffffffffffffff821117610bc657604052565b634e487b7160e01b5f52604160045260245ffd5b90816020910312610ad857518015158103610ad85790565b15610bf957565b60405162461bcd60e51b815260206004820152600f60248201526e151c985b9cd9995c8819985a5b1959608a1b6044820152606490fd5b91908201809211610c3d57565b634e487b7160e01b5f52601160045260245ffd5b91908203918211610c3d57565b15610c6557565b60405162461bcd60e51b815260206004820152601960248201527f4e6f7420616e20617574686f72697a65642072656c61796572000000000000006044820152606490fdfe60803461007a57601f61176a38819003918201601f19168301916001600160401b0383118484101761007e5780849260209460405283398101031261007a57516001600160a01b0381169081900361007a5760018060a01b031990815f5416175f55339060015416176001556040516116d790816100938239f35b5f80fd5b634e487b7160e01b5f52604160045260245ffdfe60406080815260048036101561001c575b5050361561001a57005b005b5f91823560e01c806311e39bcf1461073257806314c99df6146110095780631d62575914610fd15780631fe8b3c214610dd257838163212e150114610c3e575080633b1c57cb14610c115780635bb4780814610bc757806364af29dc14610b8957806384f4fc6a14610a855780638da5cb5b14610a5d57806395619cf714610a3457806399b511d71461087e5780639db5dbe41461074d578063a8e5e4aa14610732578063affed0e01461071357838163b550e91c1461061757508063b7b8d604146105da578063bc04f0af14610576578063ebd6948914610364578063f3fef3a3146102165763fc0cc883146101135750610010565b3461021257806003193601126102125761012b6110d5565b835460243592916001600160a01b039161014890831633146111af565b169283156101da57428311156101a257916020917f3bda24a303c0672db6d1bab02f22272feb9d5c388a2cf4f3abc987ddb59b95fa938587528352808620600160ff1982541617905560058352818187205551908152a280f35b6020606492519162461bcd60e51b83528201526013602482015272496e76616c6964206578706972792074696d6560681b6044820152fd5b6020606492519162461bcd60e51b83528201526013602482015272496e76616c69642073657373696f6e206b657960681b6044820152fd5b8280fd5b503461021257806003193601126102125761022f6110d5565b8354602435936001600160a01b039185916020918416903382148015610357575b8015610333575b610260906111f1565b865163a9059cbb60e01b81526001600160a01b03909216908201908152602081019390935291829081906040010381898688165af1801561032957917fe8de91d538b06154a2c48315768c5046f47e127d7fd3f726fd85cc723f29b05295916102f5936102fb575b50865494516001600160a01b03948516815294169092166020840152604083019190915281906060820190565b0390a180f35b61031b9060203d8111610322575b610313818361129a565b810190611648565b505f6102c8565b503d610309565b84513d88823e3d90fd5b5033895280835260ff878a2054168015610257575060058352868920544210610257565b5084600154163314610250565b5091346105735760c03660031901126105735767ffffffffffffffff823581811161021257610396903690850161113a565b9061039f6110ef565b926044359060643590811161056f576103bb903690880161113a565b91909660a435906103cf600254841461122e565b81421161053857509386846104c76104b26104a98498976104a36105349f9d998d998f7f9b5a634ce9dbcc1cc28dbce24cd5b30136689ff28f9ae433837bd68895d7d5e09f60209f60a8918d9161046c9451956020938088958601998a378401926001600160601b03199060601b16602084015260348301523060601b60548301526084356068830152608882015203608881018452018261129a565b5190209e8f7f19457468657265756d205369676e6564204d6573736167653a0a3332000000008952601c52603c88209236916112d8565b90611437565b909291926114ff565b83546001600160a01b0391821691161461130e565b898252600387526104de60ff8a842054161561134e565b89825260038752888220600160ff198254161790556104fe60025461139a565b6002558289519384928337810182815203925af19361052461051e6113bc565b956113eb565b8351908152a15191829182611168565b0390f35b60649060208b519162461bcd60e51b8352820152601160248201527014da59db985d1d5c9948195e1c1a5c9959607a1b6044820152fd5b8580fd5b80fd5b8382346105d657806003193601126105d6576102f57f7fd6e121e69ec2842a4a29502be0a852f8de98e1b672cadf23dc1786ee3945e6916105b56110d5565b90516001600160a01b03909116815260243560208201529081906040820190565b5080fd5b5090346102125760203660031901126102125760209260ff918391906001600160a01b036106066110d5565b168252855220541690519015158152f35b9290503461070f576106a59260209161062f36611105565b8454909491936001600160a01b0391821633148015610702575b80156106de575b610659906111f1565b81841683526006875261067160ff8985205416611660565b875163095ea7b360e01b81526001600160a01b03909416908401908152602081019590955291968794859391849160400190565b0393165af19081156106d557506106ba575080f35b6106d19060203d811161032257610313818361129a565b5080f35b513d84823e3d90fd5b5033835280875260ff88842054168015610650575060058752878320544210610650565b5081600154163314610649565b5050fd5b8382346105d657816003193601126105d6576020906002549051908152f35b83346105735761074a61074436611105565b91611582565b80f35b5090346102125760206107c361076236611105565b819581949395928960018060a01b03928382541633148015610871575b801561084d575b61078f906111f1565b8a5163a9059cbb60e01b81526001600160a01b03909316908301908152602081019490945290948593849291839160400190565b039288165af1801561084357946102f592917fe8de91d538b06154a2c48315768c5046f47e127d7fd3f726fd85cc723f29b05296610825575b50516001600160a01b039384168152939092166020840152604083019190915281906060820190565b61083c9060203d811161032257610313818361129a565b505f6107fc565b85513d88823e3d90fd5b5033825280865260ff8b8320541680156107865750600586528a8220544210610786565b508360015416331461077f565b508290346105d65760803660031901126105d65767ffffffffffffffff9183358381116105d6576108b2903690860161113a565b6108ba6110ef565b9160443595606435908111610a305790849596978592369101906108dd9161113a565b909860025481146108ed9061122e565b885180602081019287868537878201906001600160601b03198a60601b16602083015260348201523060601b605482015203604881018252606801610932908261129a565b519020987f19457468657265756d205369676e6564204d6573736167653a0a333200000000845289601c52603c842091369061096d926112d8565b61097691611437565b61097f916114ff565b8254610998916001600160a01b0390811691161461130e565b87825260036020528682205460ff16156109b19061134e565b878252600360205286822060ff1981541660011790556002546109d39061139a565b6002558287519384928337810182815203925af1916109f06113bc565b926109fa906113eb565b815190815260207f9b5a634ce9dbcc1cc28dbce24cd5b30136689ff28f9ae433837bd68895d7d5e091a151610534819282611168565b8480fd5b8382346105d657816003193601126105d65760015490516001600160a01b039091168152602090f35b8382346105d657816003193601126105d657905490516001600160a01b039091168152602090f35b503461021257602080600319360112610b8557610aa06110d5565b84546001600160a01b039190821633148015610b78575b8015610b54575b610ac7906111f1565b169283855280825260ff838620541615610b1b578385528152818420805460ff191690556005905282208290557f17c796fb82086b3c9effaec517342e5ca9ed8fd78c339137ec082f748ab60cbe8280a280f35b915162461bcd60e51b815291820152601560248201527414d95cdcda5bdb881ad95e481b9bdd08199bdd5b99605a1b6044820152606490fd5b5033865284835260ff84872054168015610abe575060058352838620544210610abe565b5081600154163314610ab7565b8380fd5b8382346105d65760203660031901126105d65760209160ff9082906001600160a01b03610bb46110d5565b1681526006855220541690519015158152f35b833461057357602036600319011261057357610be16110d5565b81546001600160a01b039190610bfa90831633146111af565b166001600160601b0360a01b600154161760015580f35b509034610212576020366003190112610212578160209360ff923581526003855220541690519015158152f35b919050346105d657610c4f36611105565b80949291610ccd60018060a01b03918286541633148015610dc5575b8015610d9f575b610c7b906111f1565b8285168652602097889160068352610c9860ff8a8a205416611660565b885163095ea7b360e01b81526001600160a01b038816818d01908152602081019390935293849283918a918891849160400190565b0393165af18015610d9557610d30869594938693610d2293610d78575b508354895163f7126a5560e01b8c8201908152929091166001600160a01b031660248201526044810195909552939182906064820190565b03601f19810183528261129a565b51925af1610d3c6113bc565b5015610d46578380f35b5162461bcd60e51b815291820152600e60248201526d11195c1bdcda5d0819985a5b195960921b604482015260649150fd5b610d8e908b3d8d1161032257610313818361129a565b505f610cea565b86513d87823e3d90fd5b503386528860205260ff87872054168015610c7257506005602052868620544210610c72565b5082600154163314610c6b565b503461021257606036600319011261021257610dec6110d5565b60249182359160ff831680930361056f57855486906001600160a01b03908116903382148015610fc4575b8015610f9e575b610e27906111f1565b8316825260209460068652610e4160ff8685205416611660565b80610ec55750918192845190637801cfbb60e11b8783015287820152868152610e698161126a565b905b828683519301915af1610e7c6113bc565b5015610e86578480f35b5162461bcd60e51b815292830152601d908201527f506f6b657220616374696f6e20657865637574696f6e206661696c65640000006044820152606490fd5b60018103610ef65750918192845190631846d2f560e31b8783015287820152868152610ef08161126a565b90610e6b565b60028103610f21575091819284519063f55332ab60e01b8783015287820152868152610ef08161126a565b909150600303610f66578251631253ca8d60e11b858201526001600160a01b039091168582019081526044356020820152879283929091610ef0908290604001610d22565b825162461bcd60e51b815280870185905260138187015272496e76616c696420616374696f6e207479706560681b6044820152606490fd5b503383528760205260ff85842054168015610e1e57506005602052848320544210610e1e565b5080600154163314610e17565b8382346105d65760203660031901126105d65760209181906001600160a01b03610ff96110d5565b1681526005845220549051908152f35b5090346102125781600319360112610212576110236110d5565b602435801515809103610a30577ff2e14fcd34f7db7ee071f838581d545f07c66314ab96352677ee5a0a664033fd9260209260018060a01b039182885416331480156110c8575b801561109c575b61107b91506111f1565b16938486526006835280862060ff1981541660ff841617905551908152a280f35b50338852845260ff8688205416806110b8575b61107b90611071565b50600584528587205442106110af565b508260015416331461106a565b600435906001600160a01b03821682036110eb57565b5f80fd5b602435906001600160a01b03821682036110eb57565b60609060031901126110eb576001600160a01b039060043582811681036110eb579160243590811681036110eb579060443590565b9181601f840112156110eb5782359167ffffffffffffffff83116110eb57602083818601950101116110eb57565b602080825282518183018190529093925f5b82811061119b57505060409293505f838284010152601f8019910116010190565b81810186015184820160400152850161117a565b156111b657565b60405162461bcd60e51b815260206004820152601360248201527213db9b1e481bdddb995c8818d85b8818d85b1b606a1b6044820152606490fd5b156111f857565b60405162461bcd60e51b815260206004820152600e60248201526d139bdd08185d5d1a1bdc9a5e995960921b6044820152606490fd5b1561123557565b60405162461bcd60e51b815260206004820152600d60248201526c496e76616c6964206e6f6e636560981b6044820152606490fd5b6060810190811067ffffffffffffffff82111761128657604052565b634e487b7160e01b5f52604160045260245ffd5b90601f8019910116810190811067ffffffffffffffff82111761128657604052565b67ffffffffffffffff811161128657601f01601f191660200190565b9291926112e4826112bc565b916112f2604051938461129a565b8294818452818301116110eb578281602093845f960137010152565b1561131557565b60405162461bcd60e51b8152602060048201526011602482015270496e76616c6964207369676e617475726560781b6044820152606490fd5b1561135557565b60405162461bcd60e51b815260206004820152601760248201527f416374696f6e20616c72656164792065786563757465640000000000000000006044820152606490fd5b5f1981146113a85760010190565b634e487b7160e01b5f52601160045260245ffd5b3d156113e6573d906113cd826112bc565b916113db604051938461129a565b82523d5f602084013e565b606090565b156113f257565b60405162461bcd60e51b815260206004820152601760248201527f416374696f6e20657865637574696f6e206661696c65640000000000000000006044820152606490fd5b8151919060418303611467576114609250602082015190606060408401519301515f1a90611471565b9192909190565b50505f9160029190565b91907f7fffffffffffffffffffffffffffffff5d576e7357a4501ddfe92f46681b20a084116114f457926020929160ff6080956040519485521684840152604083015260608201525f92839182805260015afa156114e85780516001600160a01b038116156114df57918190565b50809160019190565b604051903d90823e3d90fd5b5050505f9160039190565b600481101561156e5780611511575050565b6001810361152b5760405163f645eedf60e01b8152600490fd5b6002810361154c5760405163fce698f760e01b815260048101839052602490fd5b6003146115565750565b602490604051906335e2f38360e21b82526004820152fd5b634e487b7160e01b5f52602160045260245ffd5b6115e69260209160018060a01b03935f8581968254163314801561163b575b8015611614575b6115b1906111f1565b60405163095ea7b360e01b81526001600160a01b03909316600484015260248301949094529095869384929183906044820190565b0393165af19081156114e857506115fa5750565b6116119060203d811161032257610313818361129a565b50565b503382526004865260ff60408320541680156115a8575060058652604082205442106115a8565b50806001541633146115a1565b908160209103126110eb575180151581036110eb5790565b1561166757565b60405162461bcd60e51b81526020600482015260126024820152711518589b19481b9bdd08185c1c1c9bdd995960721b6044820152606490fdfea2646970667358221220cc8c9f5e93e301ba4610b0bf2f835a32f739b625baf58bd0fcc940a1aba2dcb264736f6c63430008140033a2646970667358221220fb711813fe071b6654b0456fdf8390403340c08515f44f29d34502684adcb0af64736f6c63430008140033",
    "linkReferences": {}
  },
  "methodIdentifiers": {
    "authorizedRelayers(address)": "29e295c5",
    "createWallet(address)": "b054a9e8",
    "depositToPool(address,uint256)": "2f6d58dc",
    "gameToken()": "c3dfdae6",
    "getPlayerBalance(address)": "e2734c93",
    "getWallet(address)": "04d0a647",
    "isPlayerWallet(address,address)": "05dbcb2f",
    "owner()": "8da5cb5b",
    "playerBalances(address)": "7b38314c",
    "renounceOwnership()": "715018a6",
    "setRelayer(address,bool)": "ecd8dc3a",
    "totalPoolBalance()": "5026d63e",
    "transferFromPoolToTable(address,address,uint256)": "9733cfc4",
    "transferOwnership(address)": "f2fde38b",
    "updatePlayerBalance(address,uint256)": "5363d646",
    "userWallets(address)": "63e6ffdd",
    "walletToPlayer(address)": "827d4fb0",
    "withdrawFromPool(address,uint256)": "c1bf9e58"
  },
  "id": 33
}