{
  "abi": [
    {
      "type": "constructor",
      "inputs": [
        {
          "name": "_gameToken",
          "type": "address",
          "internalType": "address"
        },
        {
          "name": "_authorizer",
          "type": "address",
          "internalType": "address"
        },
        {
          "name": "_walletFactory",
          "type": "address",
          "internalType": "address"
        }
      ],
      "stateMutability": "nonpayable"
    },
    {
      "type": "function",
      "name": "JOIN_TABLE",
      "inputs": [],
      "outputs": [
        {
          "name": "",
          "type": "bytes32",
          "internalType": "bytes32"
        }
      ],
      "stateMutability": "view"
    },
    {
      "type": "function",
      "name": "PAYMENT_DISTRIBUTION",
      "inputs": [],
      "outputs": [
        {
          "name": "",
          "type": "bytes32",
          "internalType": "bytes32"
        }
      ],
      "stateMutability": "view"
    },
    {
      "type": "function",
      "name": "PLAYER_ACTION",
      "inputs": [],
      "outputs": [
        {
          "name": "",
          "type": "bytes32",
          "internalType": "bytes32"
        }
      ],
      "stateMutability": "view"
    },
    {
      "type": "function",
      "name": "TABLE_CREATION",
      "inputs": [],
      "outputs": [
        {
          "name": "",
          "type": "bytes32",
          "internalType": "bytes32"
        }
      ],
      "stateMutability": "view"
    },
    {
      "type": "function",
      "name": "authorizedRelayers",
      "inputs": [
        {
          "name": "",
          "type": "address",
          "internalType": "address"
        }
      ],
      "outputs": [
        {
          "name": "",
          "type": "bool",
          "internalType": "bool"
        }
      ],
      "stateMutability": "view"
    },
    {
      "type": "function",
      "name": "authorizer",
      "inputs": [],
      "outputs": [
        {
          "name": "",
          "type": "address",
          "internalType": "address"
        }
      ],
      "stateMutability": "view"
    },
    {
      "type": "function",
      "name": "balancePool",
      "inputs": [],
      "outputs": [
        {
          "name": "",
          "type": "address",
          "internalType": "contract BalancePool"
        }
      ],
      "stateMutability": "view"
    },
    {
      "type": "function",
      "name": "createTableViaProxy",
      "inputs": [
        {
          "name": "params",
          "type": "tuple",
          "internalType": "struct MasterPokerTableFactoryWithProxy.TableCreationParams",
          "components": [
            {
              "name": "rakePercentage",
              "type": "uint256",
              "internalType": "uint256"
            },
            {
              "name": "nonce",
              "type": "bytes32",
              "internalType": "bytes32"
            },
            {
              "name": "signature",
              "type": "bytes",
              "internalType": "bytes"
            }
          ]
        }
      ],
      "outputs": [
        {
          "name": "tableId",
          "type": "uint256",
          "internalType": "uint256"
        },
        {
          "name": "tableAddress",
          "type": "address",
          "internalType": "address"
        }
      ],
      "stateMutability": "nonpayable"
    },
    {
      "type": "function",
      "name": "creditPlayerToPool",
      "inputs": [
        {
          "name": "player",
          "type": "address",
          "internalType": "address"
        },
        {
          "name": "amount",
          "type": "uint256",
          "internalType": "uint256"
        }
      ],
      "outputs": [],
      "stateMutability": "nonpayable"
    },
    {
      "type": "function",
      "name": "deactivateTable",
      "inputs": [
        {
          "name": "_tableId",
          "type": "uint256",
          "internalType": "uint256"
        }
      ],
      "outputs": [],
      "stateMutability": "nonpayable"
    },
    {
      "type": "function",
      "name": "distributePaymentsViaProxy",
      "inputs": [
        {
          "name": "_tableId",
          "type": "uint256",
          "internalType": "uint256"
        },
        {
          "name": "_distributions",
          "type": "tuple[]",
          "internalType": "struct MasterPokerTableFactoryWithProxy.Distribution[]",
          "components": [
            {
              "name": "player",
              "type": "address",
              "internalType": "address"
            },
            {
              "name": "amount",
              "type": "uint256",
              "internalType": "uint256"
            }
          ]
        },
        {
          "name": "_nonce",
          "type": "bytes32",
          "internalType": "bytes32"
        },
        {
          "name": "_signature",
          "type": "bytes",
          "internalType": "bytes"
        }
      ],
      "outputs": [],
      "stateMutability": "nonpayable"
    },
    {
      "type": "function",
      "name": "gameToken",
      "inputs": [],
      "outputs": [
        {
          "name": "",
          "type": "address",
          "internalType": "contract IERC20"
        }
      ],
      "stateMutability": "view"
    },
    {
      "type": "function",
      "name": "getPaymentDistributionMessageHash",
      "inputs": [
        {
          "name": "tableId",
          "type": "uint256",
          "internalType": "uint256"
        },
        {
          "name": "distributions",
          "type": "tuple[]",
          "internalType": "struct MasterPokerTableFactoryWithProxy.Distribution[]",
          "components": [
            {
              "name": "player",
              "type": "address",
              "internalType": "address"
            },
            {
              "name": "amount",
              "type": "uint256",
              "internalType": "uint256"
            }
          ]
        },
        {
          "name": "nonce",
          "type": "bytes32",
          "internalType": "bytes32"
        }
      ],
      "outputs": [
        {
          "name": "",
          "type": "bytes32",
          "internalType": "bytes32"
        }
      ],
      "stateMutability": "view"
    },
    {
      "type": "function",
      "name": "getTable",
      "inputs": [
        {
          "name": "_tableId",
          "type": "uint256",
          "internalType": "uint256"
        }
      ],
      "outputs": [
        {
          "name": "",
          "type": "tuple",
          "internalType": "struct MasterPokerTableFactoryWithProxy.TableInfo",
          "components": [
            {
              "name": "tableAddress",
              "type": "address",
              "internalType": "address"
            },
            {
              "name": "rakePercentage",
              "type": "uint256",
              "internalType": "uint256"
            },
            {
              "name": "handsHistoryHash",
              "type": "bytes32",
              "internalType": "bytes32"
            },
            {
              "name": "active",
              "type": "bool",
              "internalType": "bool"
            }
          ]
        }
      ],
      "stateMutability": "view"
    },
    {
      "type": "function",
      "name": "getTableCreationMessageHash",
      "inputs": [
        {
          "name": "rakePercentage",
          "type": "uint256",
          "internalType": "uint256"
        },
        {
          "name": "nonce",
          "type": "bytes32",
          "internalType": "bytes32"
        }
      ],
      "outputs": [
        {
          "name": "",
          "type": "bytes32",
          "internalType": "bytes32"
        }
      ],
      "stateMutability": "view"
    },
    {
      "type": "function",
      "name": "isTable",
      "inputs": [
        {
          "name": "table",
          "type": "address",
          "internalType": "address"
        }
      ],
      "outputs": [
        {
          "name": "",
          "type": "bool",
          "internalType": "bool"
        }
      ],
      "stateMutability": "view"
    },
    {
      "type": "function",
      "name": "joinTableViaProxy",
      "inputs": [
        {
          "name": "tableId",
          "type": "uint256",
          "internalType": "uint256"
        },
        {
          "name": "player",
          "type": "address",
          "internalType": "address"
        },
        {
          "name": "depositAmount",
          "type": "uint256",
          "internalType": "uint256"
        }
      ],
      "outputs": [],
      "stateMutability": "nonpayable"
    },
    {
      "type": "function",
      "name": "nextTableId",
      "inputs": [],
      "outputs": [
        {
          "name": "",
          "type": "uint256",
          "internalType": "uint256"
        }
      ],
      "stateMutability": "view"
    },
    {
      "type": "function",
      "name": "owner",
      "inputs": [],
      "outputs": [
        {
          "name": "",
          "type": "address",
          "internalType": "address"
        }
      ],
      "stateMutability": "view"
    },
    {
      "type": "function",
      "name": "recordDeposit",
      "inputs": [
        {
          "name": "_tableId",
          "type": "uint256",
          "internalType": "uint256"
        },
        {
          "name": "_amount",
          "type": "uint256",
          "internalType": "uint256"
        }
      ],
      "outputs": [],
      "stateMutability": "nonpayable"
    },
    {
      "type": "function",
      "name": "renounceOwnership",
      "inputs": [],
      "outputs": [],
      "stateMutability": "nonpayable"
    },
    {
      "type": "function",
      "name": "setBalancePool",
      "inputs": [
        {
          "name": "_balancePool",
          "type": "address",
          "internalType": "address"
        }
      ],
      "outputs": [],
      "stateMutability": "nonpayable"
    },
    {
      "type": "function",
      "name": "setRelayer",
      "inputs": [
        {
          "name": "_relayer",
          "type": "address",
          "internalType": "address"
        },
        {
          "name": "_isAuthorized",
          "type": "bool",
          "internalType": "bool"
        }
      ],
      "outputs": [],
      "stateMutability": "nonpayable"
    },
    {
      "type": "function",
      "name": "tables",
      "inputs": [
        {
          "name": "",
          "type": "uint256",
          "internalType": "uint256"
        }
      ],
      "outputs": [
        {
          "name": "tableAddress",
          "type": "address",
          "internalType": "address"
        },
        {
          "name": "rakePercentage",
          "type": "uint256",
          "internalType": "uint256"
        },
        {
          "name": "handsHistoryHash",
          "type": "bytes32",
          "internalType": "bytes32"
        },
        {
          "name": "active",
          "type": "bool",
          "internalType": "bool"
        }
      ],
      "stateMutability": "view"
    },
    {
      "type": "function",
      "name": "transferOwnership",
      "inputs": [
        {
          "name": "newOwner",
          "type": "address",
          "internalType": "address"
        }
      ],
      "outputs": [],
      "stateMutability": "nonpayable"
    },
    {
      "type": "function",
      "name": "updateAuthorizer",
      "inputs": [
        {
          "name": "_newAuthorizer",
          "type": "address",
          "internalType": "address"
        }
      ],
      "outputs": [],
      "stateMutability": "nonpayable"
    },
    {
      "type": "function",
      "name": "updateHandsHistoryHash",
      "inputs": [
        {
          "name": "_tableId",
          "type": "uint256",
          "internalType": "uint256"
        },
        {
          "name": "_handsHistoryHash",
          "type": "bytes32",
          "internalType": "bytes32"
        }
      ],
      "outputs": [],
      "stateMutability": "nonpayable"
    },
    {
      "type": "function",
      "name": "usedNonces",
      "inputs": [
        {
          "name": "",
          "type": "bytes32",
          "internalType": "bytes32"
        }
      ],
      "outputs": [
        {
          "name": "",
          "type": "bool",
          "internalType": "bool"
        }
      ],
      "stateMutability": "view"
    },
    {
      "type": "function",
      "name": "walletFactory",
      "inputs": [],
      "outputs": [
        {
          "name": "",
          "type": "address",
          "internalType": "contract WalletFactory"
        }
      ],
      "stateMutability": "view"
    },
    {
      "type": "event",
      "name": "AuthorizerUpdated",
      "inputs": [
        {
          "name": "oldAuthorizer",
          "type": "address",
          "indexed": true,
          "internalType": "address"
        },
        {
          "name": "newAuthorizer",
          "type": "address",
          "indexed": true,
          "internalType": "address"
        }
      ],
      "anonymous": false
    },
    {
      "type": "event",
      "name": "BalancePoolSet",
      "inputs": [
        {
          "name": "balancePool",
          "type": "address",
          "indexed": true,
          "internalType": "address"
        }
      ],
      "anonymous": false
    },
    {
      "type": "event",
      "name": "OwnershipTransferred",
      "inputs": [
        {
          "name": "previousOwner",
          "type": "address",
          "indexed": true,
          "internalType": "address"
        },
        {
          "name": "newOwner",
          "type": "address",
          "indexed": true,
          "internalType": "address"
        }
      ],
      "anonymous": false
    },
    {
      "type": "event",
      "name": "PaymentsDistributed",
      "inputs": [
        {
          "name": "tableId",
          "type": "uint256",
          "indexed": true,
          "internalType": "uint256"
        },
        {
          "name": "totalAmount",
          "type": "uint256",
          "indexed": false,
          "internalType": "uint256"
        }
      ],
      "anonymous": false
    },
    {
      "type": "event",
      "name": "PlayerAction",
      "inputs": [
        {
          "name": "tableId",
          "type": "uint256",
          "indexed": true,
          "internalType": "uint256"
        },
        {
          "name": "player",
          "type": "address",
          "indexed": true,
          "internalType": "address"
        },
        {
          "name": "actionType",
          "type": "uint8",
          "indexed": false,
          "internalType": "uint8"
        },
        {
          "name": "amount",
          "type": "uint256",
          "indexed": false,
          "internalType": "uint256"
        }
      ],
      "anonymous": false
    },
    {
      "type": "event",
      "name": "RelayerUpdated",
      "inputs": [
        {
          "name": "relayer",
          "type": "address",
          "indexed": true,
          "internalType": "address"
        },
        {
          "name": "isAuthorized",
          "type": "bool",
          "indexed": false,
          "internalType": "bool"
        }
      ],
      "anonymous": false
    },
    {
      "type": "event",
      "name": "TableCreated",
      "inputs": [
        {
          "name": "tableId",
          "type": "uint256",
          "indexed": true,
          "internalType": "uint256"
        },
        {
          "name": "tableAddress",
          "type": "address",
          "indexed": true,
          "internalType": "address"
        },
        {
          "name": "rakePercentage",
          "type": "uint256",
          "indexed": false,
          "internalType": "uint256"
        }
      ],
      "anonymous": false
    },
    {
      "type": "event",
      "name": "TableDeactivated",
      "inputs": [
        {
          "name": "tableId",
          "type": "uint256",
          "indexed": true,
          "internalType": "uint256"
        }
      ],
      "anonymous": false
    },
    {
      "type": "event",
      "name": "TableJoined",
      "inputs": [
        {
          "name": "tableId",
          "type": "uint256",
          "indexed": true,
          "internalType": "uint256"
        },
        {
          "name": "player",
          "type": "address",
          "indexed": true,
          "internalType": "address"
        },
        {
          "name": "amount",
          "type": "uint256",
          "indexed": false,
          "internalType": "uint256"
        }
      ],
      "anonymous": false
    },
    {
      "type": "error",
      "name": "ECDSAInvalidSignature",
      "inputs": []
    },
    {
      "type": "error",
      "name": "ECDSAInvalidSignatureLength",
      "inputs": [
        {
          "name": "length",
          "type": "uint256",
          "internalType": "uint256"
        }
      ]
    },
    {
      "type": "error",
      "name": "ECDSAInvalidSignatureS",
      "inputs": [
        {
          "name": "s",
          "type": "bytes32",
          "internalType": "bytes32"
        }
      ]
    },
    {
      "type": "error",
      "name": "OwnableInvalidOwner",
      "inputs": [
        {
          "name": "owner",
          "type": "address",
          "internalType": "address"
        }
      ]
    },
    {
      "type": "error",
      "name": "OwnableUnauthorizedAccount",
      "inputs": [
        {
          "name": "account",
          "type": "address",
          "internalType": "address"
        }
      ]
    }
  ],
  "bytecode": {
    "object": "0x608034620001e957601f62002a9e38819003918201601f191683019291906001600160401b03841183851017620001ed578160609284926040968752833981010312620001e957620000518162000201565b906200006d83620000656020840162000201565b920162000201565b3315620001d2575f8054336001600160a01b03198083168217845587519690956001600160a01b03949093859391908416907f8be0079c531659141344cd1fd0a4f28419497f9722a3daafe3b4186f6b6457e09080a31694851562000190575081169182156200014c571692831562000108578260015416176001558160025416176002556003541617600355516128879081620002178239f35b845162461bcd60e51b815260206004820152601e60248201527f496e76616c69642077616c6c657420666163746f7279206164647265737300006044820152606490fd5b855162461bcd60e51b815260206004820152601a60248201527f496e76616c696420617574686f72697a657220616464726573730000000000006044820152606490fd5b62461bcd60e51b815260206004820152601560248201527f496e76616c696420746f6b656e206164647265737300000000000000000000006044820152606490fd5b8351631e4fbdf760e01b81525f6004820152602490fd5b5f80fd5b634e487b7160e01b5f52604160045260245ffd5b51906001600160a01b0382168203620001e95756fe6080604052600436101562000012575f80fd5b5f803560e01c806316a0b97e146200124f57806316ce4a0b1462001212578063195e251f146200116d5780632272fa10146200113057806324e598131462000d3c57806329e295c51462000cf957806351e547e11462000c775780635ac65c8514620009cd578063627c82f7146200093557806370eb843b146200090a578063715018a614620008ad57806371671bf2146200085157806384895f7a14620007db57806385427b9e146200078957806388a01cd714620007695780638da5cb5b1462000740578063b27ad2991462000703578063bfa7c01f14620006dc578063c3dfdae614620006b1578063c5c036991462000686578063d081312d14620005d0578063d09edf3114620005a5578063e0a6657814620004e9578063e5026a9414620004ac578063ecd8dc3a1462000418578063ed984bf81462000272578063f2fde38b14620001de578063feb6172414620001ad5763ff5703821462000177575f80fd5b34620001aa576020366003190112620001aa576020620001a06200019a6200130c565b620018b7565b6040519015158152f35b80fd5b5034620001aa576020366003190112620001aa5760ff60406020926004358152600584522054166040519015158152f35b5034620001aa576020366003190112620001aa57620001fc6200130c565b620002066200136e565b6001600160a01b0390811690811562000259575f54826bffffffffffffffffffffffff60a01b8216175f55167f8be0079c531659141344cd1fd0a4f28419497f9722a3daafe3b4186f6b6457e05f80a380f35b604051631e4fbdf760e01b815260048101849052602490fd5b5034620001aa576060366003190112620001aa576001600160a01b03602435818116916004359183900362000414576044359033855260209060088252620002c160ff60408820541662001791565b83865260068252620002dd60ff600360408920015416620017de565b83865260068252620002f781604088205416151562001873565b620003088160045416151562001549565b841515806200040a575b15620003c75785908482526006835280604083205416906003541690813b15620003c35782916064839260405194859384926325ccf3f160e21b84528c600485015260248401528960448401525af18015620003b8576200039c575b50507fde931bb772a712739210195c0c1e1065c13038da0f9fe52175383a4b344e372291604051908152a380f35b620003a7906200139a565b620003b457845f6200036e565b8480fd5b6040513d84823e3d90fd5b8280fd5b6064826040519062461bcd60e51b825280600483015260248201527f496e76616c696420706c61796572206f72206465706f73697420616d6f756e746044820152fd5b5082151562000312565b5f80fd5b5034620001aa576040366003190112620001aa57620004366200130c565b6024359081151590818303620004a8577f4b36b2e66f38ed349bec532105790177f1283bcbc094e6cd48565195d3033c43916200049e602092620004796200136e565b60018060a01b03169485875260088452604087209060ff801983541691151516179055565b604051908152a280f35b8380fd5b5034620001aa5780600319360112620001aa5760206040517f9893dfbfe9c028b6b45056f15613cf16165832a7267a1cece0c37159a788d0d28152f35b5034620001aa576020366003190112620001aa57620005076200130c565b620005116200136e565b6001600160a01b039081169081156200056057816002549182167fd33a2de0a3cd6d4bc7adaf5b27ad1cae45d5bc621c76795836207895f853e2798580a36001600160a01b0319161760025580f35b60405162461bcd60e51b815260206004820152601a60248201527f496e76616c696420617574686f72697a657220616464726573730000000000006044820152606490fd5b5034620001aa5780600319360112620001aa576002546040516001600160a01b039091168152602090f35b5034620001aa576020366003190112620001aa57620005ee6200130c565b620005f86200136e565b6001600160a01b031680156200064157600480546001600160a01b031916821790557f437ae7ef3ea1c63df3acfee21c3777cc341290c168d277ee70b104839359114a8280a280f35b60405162461bcd60e51b815260206004820152601c60248201527f496e76616c69642062616c616e636520706f6f6c2061646472657373000000006044820152606490fd5b5034620001aa5780600319360112620001aa576003546040516001600160a01b039091168152602090f35b5034620001aa5780600319360112620001aa576001546040516001600160a01b039091168152602090f35b5034620001aa576020620006fb620006f43662001357565b9062001403565b604051908152f35b5034620001aa5780600319360112620001aa5760206040517f60e67e4563f77a9b4596b20bdffea41a92fb13e4d884e943452b8dbfa419011f8152f35b5034620001aa5780600319360112620001aa57546040516001600160a01b039091168152602090f35b5034620001aa5780600319360112620001aa576020600754604051908152f35b5034620001aa576200079b3662001357565b90620007a66200136e565b80835260066020526040832054620007c9906001600160a01b0316151562001873565b82526006602052600260408320015580f35b5034620001aa576060366003190112620001aa576024359067ffffffffffffffff8211620001aa57602062000846620008376200081c366004870162001323565b92906040519283918683019560443591600435308962001465565b03601f198101835282620013e0565b519020604051908152f35b5034620001aa576020366003190112620001aa576040608091600435815260066020522060018060a01b038154169060018101549060ff6003600283015492015416916040519384526020840152604083015215156060820152f35b5034620001aa5780600319360112620001aa57620008ca6200136e565b5f80546001600160a01b0319811682556001600160a01b03167f8be0079c531659141344cd1fd0a4f28419497f9722a3daafe3b4186f6b6457e08280a380f35b5034620001aa5780600319360112620001aa576004546040516001600160a01b039091168152602090f35b5034620001aa576040366003190112620001aa57600435808252600660205260408220546001600160a01b031633036200098857815260066020526200098560ff600360408420015416620017de565b80f35b60405162461bcd60e51b815260206004820152601e60248201527f4f6e6c79207461626c652063616e207265636f7264206465706f7369747300006044820152606490fd5b5034620001aa5760031960203682018113620003c35760043567ffffffffffffffff92838211620003b457606082360391820112620003b4578160040135916064831162000c32576024810135908187526005855262000a3560ff6040892054161562001507565b6004546001600160a01b03939062000a51908516151562001549565b62000a5d838662001403565b7f19457468657265756d205369676e6564204d6573736167653a0a3332000000008952601c52603c8820916044810135916022190182121562000c2e570160048101359087821162000c2e57602401813603811362000c2e5762000af19262000ad162000ad89262000ae29436916200158d565b906200163b565b9092919262001709565b838060025416911614620015d7565b85526005835260408520600160ff1982541617905562000b1360075462001618565b938460075581600154169060405191610f47808401928484109084111762000c1a579183916080936200190b84398152858782015230604082015287606082015203019086f0801562000c0f577e275d2b8656bccbec0d641e1770c47ef1ff17571a6b510717d456875e584a3e846003959462000bff8560409a968a96169889978c519262000ba284620013c3565b8984528684018681528e8501918383528f6060870194600186528c815260068b52209551166bffffffffffffffffffffffff60a01b86541617855551600185015551600284015551151591019060ff801983541691151516179055565b8851908152a38351928352820152f35b6040513d87823e3d90fd5b634e487b7160e01b89526041600452602489fd5b8880fd5b60405162461bcd60e51b815260048101859052601760248201527f496e76616c69642072616b652070657263656e746167650000000000000000006044820152606490fd5b5034620001aa576020366003190112620001aa5760043562000c986200136e565b8082526006602052604082205462000cbb906001600160a01b0316151562001873565b808252600660205260408220600301805460ff191690557f0e5a73d0ed97cb0a6940c022cae6870eaac97a2a20719f6f5182c63b34a0052f8280a280f35b5034620001aa576020366003190112620001aa5760209060ff906040906001600160a01b0362000d286200130c565b168152600884522054166040519015158152f35b5034620001aa576080366003190112620001aa5767ffffffffffffffff602435818111620003c35762000d7490369060040162001323565b909160643590808211620003b45736602383011215620003b4578160040135908111620003b4573660248284010111620003b457929192338552600860205262000dc560ff60408720541662001791565b6004358552600660205262000de460ff600360408820015416620017de565b62000e9462000e7d62000ad860443593848952600560205262000e0f60ff60408b2054161562001507565b62000ad160405196602088018862000e2e898d8d600435308762001465565b039862000e44601f199a8b8101835282620013e0565b5190207f19457468657265756d205369676e6564204d6573736167653a0a3332000000008c52601c52603c8b209260243692016200158d565b6002546001600160a01b03918216911614620015d7565b8452600560209081526040808620805460ff19166001179055600435865260069091528420546001600160a01b03169062000ecf846200181c565b9262000edf6040519485620013e0565b8484528162000eee866200181c565b0136602086013762000f00856200181c565b9162000f106040519384620013e0565b85835262000f1e866200181c565b01366020840137859486915b8183106200103f57505050813b15620003b4579084929160405192631a918ddf60e11b845260448401604060048601528151809152602060648601920190865b8181106200101c5750505060031984820301602485015260208083519283815201920190855b81811062001002575050508391838381809403925af18015620003b85762000fe6575b50506040519081527f6b3f6f827a2d386cd40ad04cbcd3e9b45dc53294033b5043df012889247eecb5602060043592a280f35b62000ff1906200139a565b62000ffe57815f62000fb3565b5080fd5b825184528896506020938401939092019160010162000f90565b82516001600160a01b031684528997506020938401939092019160010162000f6a565b91959091906001600160a01b036200105d600689901b840162001835565b161515806200111d575b15620010e1576200107d8760061b830162001835565b6200108988886200184a565b6001600160a01b039091169052600687901b82016020013580620010ae89876200184a565b528101809111620010cd57620010c5909662001618565b919062000f2a565b634e487b7160e01b88526011600452602488fd5b60405162461bcd60e51b815260206004820152601460248201527324b73b30b634b2103234b9ba3934b13aba34b7b760611b6044820152606490fd5b5060208760061b83010135151562001067565b5034620001aa5780600319360112620001aa5760206040517f72679d7e1dc1606c6e8cd00e61089823404c275f1d751a7a8b24dc3e51a38cb28152f35b5034620001aa576020366003190112620001aa57604081608092606083516200119681620013c3565b828152826020820152828582015201526004358152600660205220604051620011bf81620013c3565b60018060a01b0382541691828252600181015460208301908152606060ff600360028501549460408701958652015416930192151583526040519384525160208401525160408301525115156060820152f35b5034620001aa5780600319360112620001aa5760206040517fa1c574cb97800ffcad34e92d51ee107edc4e1ca406766d4aadc6607776e46b878152f35b5034620001aa576040366003190112620001aa576200126d6200130c565b6200127833620018b7565b15620012d9576003546001600160a01b0390811691839190833b15620003c3576044908360405195869485936339c255ad60e11b855216600484015260243560248401525af18015620003b857620012ce575080f35b62000985906200139a565b60405162461bcd60e51b815260206004820152600b60248201526a4e6f742061207461626c6560a81b6044820152606490fd5b600435906001600160a01b03821682036200041457565b9181601f84011215620004145782359167ffffffffffffffff831162000414576020808501948460061b0101116200041457565b604090600319011262000414576004359060243590565b5f546001600160a01b031633036200138257565b60405163118cdaa760e01b8152336004820152602490fd5b67ffffffffffffffff8111620013af57604052565b634e487b7160e01b5f52604160045260245ffd5b6080810190811067ffffffffffffffff821117620013af57604052565b90601f8019910116810190811067ffffffffffffffff821117620013af57604052565b906040519060208201923084527f72679d7e1dc1606c6e8cd00e61089823404c275f1d751a7a8b24dc3e51a38cb26040840152606083015260808201526080815260a0810181811067ffffffffffffffff821117620013af5760405251902090565b95949390929160a087019360018060a01b038091168852826020957fa1c574cb97800ffcad34e92d51ee107edc4e1ca406766d4aadc6607776e46b87878b0152604093848b015260a060608b01525260c0880193945f91825b858410620014d55750505050505060809150930152565b9091929394958735838116809103620003c35781528784013584820152968501968501959493600101929190620014be565b156200150f57565b60405162461bcd60e51b8152602060048201526012602482015271139bdb98d948185b1c9958591e481d5cd95960721b6044820152606490fd5b156200155157565b60405162461bcd60e51b815260206004820152601460248201527310985b185b98d9481c1bdbdb081b9bdd081cd95d60621b6044820152606490fd5b92919267ffffffffffffffff8211620013af5760405191620015ba601f8201601f191660200184620013e0565b82948184528183011162000414578281602093845f960137010152565b15620015df57565b60405162461bcd60e51b8152602060048201526011602482015270496e76616c6964207369676e617475726560781b6044820152606490fd5b5f198114620016275760010190565b634e487b7160e01b5f52601160045260245ffd5b81519190604183036200166e57620016679250602082015190606060408401519301515f1a9062001678565b9192909190565b50505f9160029190565b91907f7fffffffffffffffffffffffffffffff5d576e7357a4501ddfe92f46681b20a08411620016fe57926020929160ff6080956040519485521684840152604083015260608201525f92839182805260015afa15620016f25780516001600160a01b03811615620016e957918190565b50809160019190565b604051903d90823e3d90fd5b5050505f9160039190565b60048110156200177d57806200171d575050565b60018103620017385760405163f645eedf60e01b8152600490fd5b600281036200175a5760405163fce698f760e01b815260048101839052602490fd5b600314620017655750565b602490604051906335e2f38360e21b82526004820152fd5b634e487b7160e01b5f52602160045260245ffd5b156200179957565b60405162461bcd60e51b815260206004820152601960248201527f4e6f7420616e20617574686f72697a65642072656c61796572000000000000006044820152606490fd5b15620017e657565b60405162461bcd60e51b815260206004820152600e60248201526d5461626c6520696e61637469766560901b6044820152606490fd5b67ffffffffffffffff8111620013af5760051b60200190565b356001600160a01b0381168103620004145790565b80518210156200185f5760209160051b010190565b634e487b7160e01b5f52603260045260245ffd5b156200187b57565b60405162461bcd60e51b81526020600482015260146024820152731518589b1948191bd95cc81b9bdd08195e1a5cdd60621b6044820152606490fd5b60018091600754925b83811115620018d157505050505f90565b5f818152600660205260409020546001600160a01b038381169116146200190357620018fd9062001618565b620018c0565b505090509056fe610100346101d557601f610f4738819003918201601f191683019291906001600160401b038411838510176101d95781608092849260409687528339810103126101d55761004c816101ed565b906020810151606061005f8584016101ed565b920151926001600160a01b038084169081156101be575f80546001600160a01b031981168417825588519391908316907f8be0079c531659141344cd1fd0a4f28419497f9722a3daafe3b4186f6b6457e09080a382161561017c5750606482116101385760805260a05260c05260e05251610d45908161020282396080518181816101a0015281816104d5015281816106520152818161076c01528181610a110152610ae2015260a05181610544015260c051818181610103015281816104560152610792015260e0518181816101fd015261049d0152f35b845162461bcd60e51b815260206004820152601760248201527f496e76616c69642072616b652070657263656e746167650000000000000000006044820152606490fd5b62461bcd60e51b815260206004820152601460248201527f496e76616c6964205553445420616464726573730000000000000000000000006044820152606490fd5b8651631e4fbdf760e01b81525f6004820152602490fd5b5f80fd5b634e487b7160e01b5f52604160045260245ffd5b51906001600160a01b03821682036101d55756fe60806040818152600480361015610014575f80fd5b5f92833560e01c90816312065fe014610ab7575080632d61419a1461097957806335231bbe146107025780634b319713146106e35780635312ea8e146105e3578063715018a6146105865780637d88209714610567578063896f398a1461052c5780638da5cb5b146105045780639ab4a445146104c0578063c2c1e2cb14610485578063c45a015514610441578063c4df179b146103ff578063f2fde38b146103795763f7126a55146100c5575f80fd5b346102765781600319360112610276576100dd610b69565b602491823593841561034657805163c5c0369960e01b8152936020936001600160a01b037f000000000000000000000000000000000000000000000000000000000000000081169186888781865afa978815610300578a9861030a575b50868260448193885194859384926305dbcb2f60e01b8452338d850152169c8d8a840152165afa908115610300578a916102e3575b50156102b15790888681949360648b885194859384926323b872dd60e01b8452338d850152308a85015260448401527f0000000000000000000000000000000000000000000000000000000000000000165af180156102a75761027a575b506101da88600154610c41565b600155803b156102765787948360449286519a8b95869463627c82f760e01b86527f0000000000000000000000000000000000000000000000000000000000000000908601528401525af194851561026c577f2da466a7b24304f47e87fa2e1e5a81b9831ce54fec19055ce277ca2f39ba42c4949561025d575b5051908152a280f35b61026690610bdf565b5f610254565b81513d88823e3d90fd5b8280fd5b61029990873d89116102a0575b6102918183610c07565b810190610c29565b505f6101cd565b503d610287565b85513d86823e3d90fd5b5050606493600e92519362461bcd60e51b85528401528201526d125b9d985b1a59081dd85b1b195d60921b6044820152fd5b6102fa9150873d89116102a0576102918183610c07565b5f61016f565b85513d8c823e3d90fd5b9097508681813d831161033f575b6103228183610c07565b8101031261033b5751818116810361033b57968661013a565b8980fd5b503d610318565b90600e846020606494519362461bcd60e51b85528401528201526d125b9d985b1a5908185b5bdd5b9d60921b6044820152fd5b503461027657602036600319011261027657610393610b69565b9061039c610bb4565b6001600160a01b039182169283156103e957505082546001600160a01b0319811683178455167f8be0079c531659141344cd1fd0a4f28419497f9722a3daafe3b4186f6b6457e08380a380f35b51631e4fbdf760e01b8152908101849052602490fd5b50503461043d57602036600319011261043d5760209160ff9082906001600160a01b0361042a610b69565b1681526003855220541690519015158152f35b5080fd5b50503461043d578160031936011261043d57517f00000000000000000000000000000000000000000000000000000000000000006001600160a01b03168152602090f35b50503461043d578160031936011261043d57602090517f00000000000000000000000000000000000000000000000000000000000000008152f35b50503461043d578160031936011261043d57517f00000000000000000000000000000000000000000000000000000000000000006001600160a01b03168152602090f35b50503461043d578160031936011261043d57905490516001600160a01b039091168152602090f35b50503461043d578160031936011261043d57602090517f00000000000000000000000000000000000000000000000000000000000000008152f35b50503461043d578160031936011261043d576020906001549051908152f35b83346105e057806003193601126105e05761059f610bb4565b80546001600160a01b03198116825581906001600160a01b03167f8be0079c531659141344cd1fd0a4f28419497f9722a3daafe3b4186f6b6457e08280a380f35b80fd5b503461027657602036600319011261027657803590610600610bb4565b61060b821515610c62565b61061782600254610c41565b6002558354835163a9059cbb60e01b81526001600160a01b0391821692810192835260208381018590529093919284908190604001038188867f0000000000000000000000000000000000000000000000000000000000000000165af19182156106d9576106b06020937f23d6711a1d031134a36921253c75aa59e967d38e369ac625992824315e204f209588916106bc575b50610cad565b8554169351908152a280f35b6106d39150853d81116102a0576102918183610c07565b5f6106aa565b84513d87823e3d90fd5b50503461043d578160031936011261043d576020906002549051908152f35b50903461027657806003193601126102765767ffffffffffffffff918035838111610975576107349036908301610b83565b6024939193948535908111610971576107509036908501610b83565b61075b959195610bb4565b80830361093d576001600160a01b037f000000000000000000000000000000000000000000000000000000000000000081169690937f000000000000000000000000000000000000000000000000000000000000000080861694908b5b8381106107c3578c80f35b6107ce818787610ceb565b351561090d578c80838c61081c8f8e6107e8888e8e610ceb565b35905195868094819363a9059cbb60e01b83526020988998840160209093929193604081019460018060a01b031681520152565b03925af1928315610902579061083b939291926108e5575b5050610cad565b610846818585610ceb565b3588811681036108e1578d61085c838989610ceb565b3591893b1561043d578b51630b505cbf60e11b81526001600160a01b03909116818e01908152602081019390935291829081906040010381838c5af180156108d5576108c6575b505f1981146108b4576001016107b8565b634e487b7160e01b8d5260118a528b8dfd5b6108cf90610bdf565b5f6108a3565b8e8b51903d90823e3d90fd5b8d80fd5b6108fb9250803d106102a0576102918183610c07565b5f80610834565b8c51903d90823e3d90fd5b885162461bcd60e51b81526020818c0152600b818e01526a16995c9bc8185b5bdd5b9d60aa1b6044820152606490fd5b835162461bcd60e51b8152602081870152600f818901526e098cadccee8d040dad2e6dac2e8c6d608b1b6044820152606490fd5b8680fd5b8480fd5b509034610276578060031936011261027657610993610b69565b90602435916109a0610bb4565b6001600160a01b03818116949091908515610a8257610a0d926020928887936109ca851515610c62565b6109d685600254610c41565b600255875163a9059cbb60e01b81526001600160a01b03909316908301908152602081019490945290948593849291839160400190565b03927f0000000000000000000000000000000000000000000000000000000000000000165af1908115610a785791610a707f59d9f8b94d1de65b8eeb1b14e24d5d70c2782e96b3abef17ba687f3ee33a754a949260209488916106bc5750610cad565b51908152a280f35b82513d87823e3d90fd5b606490602085519162461bcd60e51b8352820152600f60248201526e496e76616c6964206164647265737360881b6044820152fd5b9291905034610b655783600319360112610b65576370a0823160e01b835230908301526020826024817f00000000000000000000000000000000000000000000000000000000000000006001600160a01b03165afa918215610b5b578392610b24575b6020838351908152f35b9091506020813d8211610b53575b81610b3f60209383610c07565b81010312610276576020925051905f610b1a565b3d9150610b32565b81513d85823e3d90fd5b8380fd5b600435906001600160a01b0382168203610b7f57565b5f80fd5b9181601f84011215610b7f5782359167ffffffffffffffff8311610b7f576020808501948460051b010111610b7f57565b5f546001600160a01b03163303610bc757565b60405163118cdaa760e01b8152336004820152602490fd5b67ffffffffffffffff8111610bf357604052565b634e487b7160e01b5f52604160045260245ffd5b90601f8019910116810190811067ffffffffffffffff821117610bf357604052565b90816020910312610b7f57518015158103610b7f5790565b91908201809211610c4e57565b634e487b7160e01b5f52601160045260245ffd5b15610c6957565b606460405162461bcd60e51b815260206004820152602060248201527f416d6f756e74206d7573742062652067726561746572207468616e207a65726f6044820152fd5b15610cb457565b60405162461bcd60e51b815260206004820152600f60248201526e151c985b9cd9995c8819985a5b1959608a1b6044820152606490fd5b9190811015610cfb5760051b0190565b634e487b7160e01b5f52603260045260245ffdfea2646970667358221220cf3d8db55fb903d016ce2fb73ed2e30b214278cea3f575925d824b35bef0845464736f6c63430008140033a2646970667358221220e2697c5b01e24e4107ff5e972b2f59054b36829ba44d8286f28908300d01b5b864736f6c63430008140033",
    "linkReferences": {}
  },
  "methodIdentifiers": {
    "JOIN_TABLE()": "b27ad299",
    "PAYMENT_DISTRIBUTION()": "16ce4a0b",
    "PLAYER_ACTION()": "e5026a94",
    "TABLE_CREATION()": "2272fa10",
    "authorizedRelayers(address)": "29e295c5",
    "authorizer()": "d09edf31",
    "balancePool()": "70eb843b",
    "createTableViaProxy((uint256,bytes32,bytes))": "5ac65c85",
    "creditPlayerToPool(address,uint256)": "16a0b97e",
    "deactivateTable(uint256)": "51e547e1",
    "distributePaymentsViaProxy(uint256,(address,uint256)[],bytes32,bytes)": "24e59813",
    "gameToken()": "c3dfdae6",
    "getPaymentDistributionMessageHash(uint256,(address,uint256)[],bytes32)": "84895f7a",
    "getTable(uint256)": "195e251f",
    "getTableCreationMessageHash(uint256,bytes32)": "bfa7c01f",
    "isTable(address)": "ff570382",
    "joinTableViaProxy(uint256,address,uint256)": "ed984bf8",
    "nextTableId()": "88a01cd7",
    "owner()": "8da5cb5b",
    "recordDeposit(uint256,uint256)": "627c82f7",
    "renounceOwnership()": "715018a6",
    "setBalancePool(address)": "d081312d",
    "setRelayer(address,bool)": "ecd8dc3a",
    "tables(uint256)": "71671bf2",
    "transferOwnership(address)": "f2fde38b",
    "updateAuthorizer(address)": "e0a66578",
    "updateHandsHistoryHash(uint256,bytes32)": "85427b9e",
    "usedNonces(bytes32)": "feb61724",
    "walletFactory()": "c5c03699"
  },
  "id": 31
}